:100000000C942A000C9447000C9447000C94470071
:100010000C9447000C9447000C9447000C94470044
:100020000C9447000C9447000C9447000C94470034
:100030000C9447000C9447000C9447000C94470024
:100040000C9447000C9447000C9447000C94470014
:100050000C94470011241FBECFE5D4E0DEBFCDBF16
:1000600010E0A0E6B0E0E0EFF5E002C005900D92F0
:10007000A837B107D9F710E0A8E7B0E001C01D929A
:10008000AF37B107E1F70E94A7020C94F7020C9476
:100090000000109279002091780090E002C09F5FEC
:1000A0002BE09817E0F3209378009093790008955F
:1000B000AA9888EC0E944900AA9A88EC0E944900FC
:1000C000AA9808950F931F93082F85B3887F85BB47
:1000D000802F807F85BB0E94580011270F70107001
:1000E00084E0000F111F8A95E1F705BB0E945800BC
:1000F0001F910F9108951F93182F81E085BB15BAAA
:10010000812F807F816085BB0E9458001295107FEF
:10011000116015BB0E9458001F910895EF92FF9245
:100120000F931F93CF93DF937C0181E085BB15BABA
:1001300000E010E014C0903119F480EC0E946200DD
:100140008881807F816085BB0E945800888182956C
:10015000807F816085BB0E9458000F5F1F4F902FEA
:10016000E701C00FD11D8881882329F7DF91CF9146
:100170001F910F91FF90EF900895DF92EF92FF9201
:100180000F931F93D82E64E60E94C402282F94E692
:10019000E92E8E9D700111248D2D99278E199F09AE
:1001A0006AE070E00E94D0028B01822F805D0E9485
:1001B0007B00802F805D0E947B00DE188AE0089F14
:1001C000C0011124D81A8D2D805D0E947B001F91E3
:1001D0000F91FF90EF90DF900895882329F4862FE8
:1001E00080580E9462000895813021F4862F805447
:1001F0000E946200089509C020E030E000002F5FF7
:100200003F4F4CE02C3C3407C9F701972FEF8F3F4D
:10021000920791F7089584E190E00E94FB0085B376
:1002200080937A008FEF84BB8FE090E00E94FB0008
:1002300080E285BB81E00E94620082E00E94620051
:1002400080E80E94620084E190E00E94FB00089533
:1002500081E00E946200089510927E0010927D005D
:1002600020E030E040E050E000000000000000002E
:10027000000000000000000000000000000000007E
:100280004F5F5F4F63E04132560771F72F5F3F4F7B
:100290008217930738F730937E0020937D005093A8
:1002A0007C0040937B00089510927E0010927D00A8
:1002B00020E030E00000000000000000000000002E
:1002C00000000000000000002F5F3F4F82179307DF
:1002D00088F730937E0020937D0008958EEF8BBBCE
:1002E0008AE090E00E942C01CC9911C063E080E08C
:1002F0000E94ED0080E690E00E948E0065E081E0C3
:100300000E94ED0081E30E947B0080E688BBCD99CE
:1003100011C063E080E00E94ED0080E690E00E9462
:100320008E0065E081E00E94ED0082E30E947B0088
:1003300080EA88BBCE9911C063E080E00E94ED00A6
:1003400080E690E00E948E0065E081E00E94ED0072
:1003500083E30E947B0080E988BBCF990FC063E0F4
:1003600080E00E94ED0080E690E00E948E0065E053
:1003700081E00E94ED0081E40E947B0008958DEFF2
:100380008BBB8AE090E00E942C01CC9911C063E005
:1003900080E00E94ED0080E690E00E948E0065E023
:1003A00081E00E94ED0084E30E947B0080E288BB34
:1003B000CD9910C063E080E00E94ED0080E690E0FF
:1003C0000E948E0065E081E00E94ED0085E30E94BE
:1003D0007B0018BACE9911C063E080E00E94ED0066
:1003E00080E690E00E948E0065E081E00E94ED00D2
:1003F00086E30E947B0080E888BBCF990FC063E052
:1004000080E00E94ED0080E690E00E948E0065E0B2
:1004100081E00E94ED0082E40E947B0008958BEF52
:100420008BBB8AE090E00E942C01CC990FC063E066
:1004300080E00E94ED0080E690E00E948E0065E082
:1004400081E00E94ED0087E30E947B00CD9911C0FE
:1004500063E080E00E94ED0080E690E00E948E0064
:1004600065E081E00E94ED0088E30E947B0080E56A
:1004700088BBCE990FC063E080E00E94ED0080E66B
:1004800090E00E948E0065E081E00E94ED0089E32B
:100490000E947B00CF990FC063E080E00E94ED00D6
:1004A00080E690E00E948E0065E081E00E94ED0011
:1004B00083E40E947B00089587E78BBB8AE090E08D
:1004C0000E942C01CC990FC063E080E00E94ED00F7
:1004D00080E690E00E948E0065E081E00E94ED00E1
:1004E0008AE20E947B00CD990FC063E080E00E9409
:1004F000ED0080E690E00E948E0065E081E00E94C1
:10050000ED0080E30E947B00CE990FC063E080E0A5
:100510000E94ED0080E690E00E948E0065E081E0A0
:100520000E94ED0083E20E947B00CF990FC063E040
:1005300080E00E94ED0080E690E00E948E0065E081
:1005400081E00E94ED0084E40E947B0008951F93E7
:100550008FE08ABB10EF1BBB0E940B0117BB18BAC0
:1005600063E080E00E94ED008CE690E00E948E0047
:1005700080EF8BBB89B30E946E010E94BF010E9475
:100580000F020E945C02F4CF991B79E004C0991F0E
:10059000961708F0961B881F7A95C9F780950895DD
:1005A00097FB092E07260AD077FD04D00CD006D081
:1005B00000201AF4709561957F4F0895F6F7909595
:1005C00081959F4F0895AA1BBB1B51E107C0AA1F2D
:1005D000BB1FA617B70710F0A61BB70B881F991FE4
:1005E0005A95A9F780959095BC01CD010895FFCF4C
:1005F0006B657920707265737365640070726573E2
:08060000732061206B65790095
:00000001FF
